{"abi":[{"type":"constructor","inputs":[{"name":"requests","type":"tuple[]","internalType":"struct UniswapV4TickGetter.TickDataRequest[]","components":[{"name":"poolId","type":"bytes32","internalType":"bytes32"},{"name":"ticks","type":"int24[]","internalType":"int24[]"}]}],"stateMutability":"nonpayable"},{"type":"function","name":"STATE_VIEW","inputs":[],"outputs":[{"name":"","type":"address","internalType":"contract IStateView"}],"stateMutability":"view"}],"bytecode":{"object":"0x608060405234801561000f575f5ffd5b50604051610a44380380610a44833981810160405281019061003191906105f3565b5f815167ffffffffffffffff81111561004d5761004c6102ff565b5b60405190808252806020026020018201604052801561008057816020015b606081526020019060019003908161006b5790505b5090505f5f90505b82518110156102ac578281815181106100a4576100a361063a565b5b6020026020010151602001515167ffffffffffffffff8111156100ca576100c96102ff565b5b6040519080825280602002602001820160405280156100f85781602001602082028036833780820191505090505b5082828151811061010c5761010b61063a565b5b60200260200101819052505f5f90505b83828151811061012f5761012e61063a565b5b6020026020010151602001515181101561029e575f5f737ffe42c4a5deea5b0fec41c94c136cf11559722773ffffffffffffffffffffffffffffffffffffffff1663caedab548786815181106101885761018761063a565b5b60200260200101515f01518887815181106101a6576101a561063a565b5b60200260200101516020015186815181106101c4576101c361063a565b5b60200260200101516040518363ffffffff1660e01b81526004016101e9929190610685565b6040805180830381865afa158015610203573d5f5f3e3d5ffd5b505050506040513d601f19601f820116820180604052508101906102279190610727565b91509150818160405160200161023e9291906107c1565b60405160208183030381529060405261025690610825565b8585815181106102695761026861063a565b5b602002602001015184815181106102835761028261063a565b5b6020026020010181815250505050808060010191505061011c565b508080600101915050610088565b505f43826040516020016102c1929190610a15565b6040516020818303038152906040529050805160208201f35b5f604051905090565b5f5ffd5b5f5ffd5b5f5ffd5b5f601f19601f8301169050919050565b7f4e487b71000000000000000000000000000000000000000000000000000000005f52604160045260245ffd5b610335826102ef565b810181811067ffffffffffffffff82111715610354576103536102ff565b5b80604052505050565b5f6103666102da565b9050610372828261032c565b919050565b5f67ffffffffffffffff821115610391576103906102ff565b5b602082029050602081019050919050565b5f5ffd5b5f5ffd5b5f5ffd5b5f819050919050565b6103c0816103ae565b81146103ca575f5ffd5b50565b5f815190506103db816103b7565b92915050565b5f67ffffffffffffffff8211156103fb576103fa6102ff565b5b602082029050602081019050919050565b5f8160020b9050919050565b6104218161040c565b811461042b575f5ffd5b50565b5f8151905061043c81610418565b92915050565b5f61045461044f846103e1565b61035d565b90508083825260208201905060208402830185811115610477576104766103a2565b5b835b818110156104a0578061048c888261042e565b845260208401935050602081019050610479565b5050509392505050565b5f82601f8301126104be576104bd6102eb565b5b81516104ce848260208601610442565b91505092915050565b5f604082840312156104ec576104eb6103a6565b5b6104f6604061035d565b90505f610505848285016103cd565b5f83015250602082015167ffffffffffffffff811115610528576105276103aa565b5b610534848285016104aa565b60208301525092915050565b5f61055261054d84610377565b61035d565b90508083825260208201905060208402830185811115610575576105746103a2565b5b835b818110156105bc57805167ffffffffffffffff81111561059a576105996102eb565b5b8086016105a789826104d7565b85526020850194505050602081019050610577565b5050509392505050565b5f82601f8301126105da576105d96102eb565b5b81516105ea848260208601610540565b91505092915050565b5f60208284031215610608576106076102e3565b5b5f82015167ffffffffffffffff811115610625576106246102e7565b5b610631848285016105c6565b91505092915050565b7f4e487b71000000000000000000000000000000000000000000000000000000005f52603260045260245ffd5b610670816103ae565b82525050565b61067f8161040c565b82525050565b5f6040820190506106985f830185610667565b6106a56020830184610676565b9392505050565b5f6fffffffffffffffffffffffffffffffff82169050919050565b6106d0816106ac565b81146106da575f5ffd5b50565b5f815190506106eb816106c7565b92915050565b5f81600f0b9050919050565b610706816106f1565b8114610710575f5ffd5b50565b5f81519050610721816106fd565b92915050565b5f5f6040838503121561073d5761073c6102e3565b5b5f61074a858286016106dd565b925050602061075b85828601610713565b9150509250929050565b5f8160801b9050919050565b5f61077b82610765565b9050919050565b61079361078e826106ac565b610771565b82525050565b5f6107a382610765565b9050919050565b6107bb6107b6826106f1565b610799565b82525050565b5f6107cc8285610782565b6010820191506107dc82846107aa565b6010820191508190509392505050565b5f81519050919050565b5f819050602082019050919050565b5f61081082516103ae565b80915050919050565b5f82821b905092915050565b5f61082f826107ec565b82610839846107f6565b905061084481610805565b925060208210156108845761087f7fffffffffffffffffffffffffffffffffffffffffffffffffffffffffffffffff83602003600802610819565b831692505b5050919050565b5f819050919050565b61089d8161088b565b82525050565b5f81519050919050565b5f82825260208201905092915050565b5f819050602082019050919050565b5f81519050919050565b5f82825260208201905092915050565b5f819050602082019050919050565b6108fe816103ae565b82525050565b5f61090f83836108f5565b60208301905092915050565b5f602082019050919050565b5f610931826108cc565b61093b81856108d6565b9350610946836108e6565b805f5b8381101561097657815161095d8882610904565b97506109688361091b565b925050600181019050610949565b5085935050505092915050565b5f61098e8383610927565b905092915050565b5f602082019050919050565b5f6109ac826108a3565b6109b681856108ad565b9350836020820285016109c8856108bd565b805f5b85811015610a0357848403895281516109e48582610983565b94506109ef83610996565b925060208a019950506001810190506109cb565b50829750879550505050505092915050565b5f604082019050610a285f830185610894565b8181036020830152610a3a81846109a2565b9050939250505056fe","linkReferences":{}},"deployedBytecode":{"object":"0x6080604052348015600e575f5ffd5b50600436106026575f3560e01c8063aa4cfccd14602a575b5f5ffd5b60306044565b604051603b919060ca565b60405180910390f35b737ffe42c4a5deea5b0fec41c94c136cf11559722781565b5f73ffffffffffffffffffffffffffffffffffffffff82169050919050565b5f819050919050565b5f60986094609084605c565b607b565b605c565b9050919050565b5f60a7826084565b9050919050565b5f60b682609f565b9050919050565b60c48160ae565b82525050565b5f60208201905060db5f83018460bd565b9291505056fea264697066735822122004d79787da2c3793bb0af80420544605bddfbe43e87415dc0e5bd5aae81d666564736f6c634300081e0033","linkReferences":{}},"methodIdentifiers":{"STATE_VIEW()":"aa4cfccd"},"id":0}