{"abi":[{"type":"constructor","inputs":[{"name":"requests","type":"tuple[]","internalType":"struct UniswapV4TickBitmapGetter.BitmapRequest[]","components":[{"name":"poolId","type":"bytes32","internalType":"bytes32"},{"name":"wordPositions","type":"int16[]","internalType":"int16[]"}]}],"stateMutability":"nonpayable"},{"type":"function","name":"STATE_VIEW","inputs":[],"outputs":[{"name":"","type":"address","internalType":"contract IStateView"}],"stateMutability":"view"}],"bytecode":{"object":"0x608060405234801561000f575f5ffd5b50604051610888380380610888833981810160405281019061003191906105c1565b5f815167ffffffffffffffff81111561004d5761004c6102cd565b5b60405190808252806020026020018201604052801561008057816020015b606081526020019060019003908161006b5790505b5090505f5f90505b825181101561027a578281815181106100a4576100a3610608565b5b6020026020010151602001515167ffffffffffffffff8111156100ca576100c96102cd565b5b6040519080825280602002602001820160405280156100f85781602001602082028036833780820191505090505b5082828151811061010c5761010b610608565b5b60200260200101819052505f5f90505b83828151811061012f5761012e610608565b5b6020026020010151602001515181101561026c57737ffe42c4a5deea5b0fec41c94c136cf11559722773ffffffffffffffffffffffffffffffffffffffff16631c7ccb4c85848151811061018657610185610608565b5b60200260200101515f01518685815181106101a4576101a3610608565b5b60200260200101516020015184815181106101c2576101c1610608565b5b60200260200101516040518363ffffffff1660e01b81526004016101e7929190610653565b602060405180830381865afa158015610202573d5f5f3e3d5ffd5b505050506040513d601f19601f8201168201806040525081019061022691906106ad565b83838151811061023957610238610608565b5b6020026020010151828151811061025357610252610608565b5b602002602001018181525050808060010191505061011c565b508080600101915050610088565b505f438260405160200161028f929190610859565b6040516020818303038152906040529050805160208201f35b5f604051905090565b5f5ffd5b5f5ffd5b5f5ffd5b5f601f19601f8301169050919050565b7f4e487b71000000000000000000000000000000000000000000000000000000005f52604160045260245ffd5b610303826102bd565b810181811067ffffffffffffffff82111715610322576103216102cd565b5b80604052505050565b5f6103346102a8565b905061034082826102fa565b919050565b5f67ffffffffffffffff82111561035f5761035e6102cd565b5b602082029050602081019050919050565b5f5ffd5b5f5ffd5b5f5ffd5b5f819050919050565b61038e8161037c565b8114610398575f5ffd5b50565b5f815190506103a981610385565b92915050565b5f67ffffffffffffffff8211156103c9576103c86102cd565b5b602082029050602081019050919050565b5f8160010b9050919050565b6103ef816103da565b81146103f9575f5ffd5b50565b5f8151905061040a816103e6565b92915050565b5f61042261041d846103af565b61032b565b9050808382526020820190506020840283018581111561044557610444610370565b5b835b8181101561046e578061045a88826103fc565b845260208401935050602081019050610447565b5050509392505050565b5f82601f83011261048c5761048b6102b9565b5b815161049c848260208601610410565b91505092915050565b5f604082840312156104ba576104b9610374565b5b6104c4604061032b565b90505f6104d38482850161039b565b5f83015250602082015167ffffffffffffffff8111156104f6576104f5610378565b5b61050284828501610478565b60208301525092915050565b5f61052061051b84610345565b61032b565b9050808382526020820190506020840283018581111561054357610542610370565b5b835b8181101561058a57805167ffffffffffffffff811115610568576105676102b9565b5b80860161057589826104a5565b85526020850194505050602081019050610545565b5050509392505050565b5f82601f8301126105a8576105a76102b9565b5b81516105b884826020860161050e565b91505092915050565b5f602082840312156105d6576105d56102b1565b5b5f82015167ffffffffffffffff8111156105f3576105f26102b5565b5b6105ff84828501610594565b91505092915050565b7f4e487b71000000000000000000000000000000000000000000000000000000005f52603260045260245ffd5b61063e8161037c565b82525050565b61064d816103da565b82525050565b5f6040820190506106665f830185610635565b6106736020830184610644565b9392505050565b5f819050919050565b61068c8161067a565b8114610696575f5ffd5b50565b5f815190506106a781610683565b92915050565b5f602082840312156106c2576106c16102b1565b5b5f6106cf84828501610699565b91505092915050565b6106e18161067a565b82525050565b5f81519050919050565b5f82825260208201905092915050565b5f819050602082019050919050565b5f81519050919050565b5f82825260208201905092915050565b5f819050602082019050919050565b6107428161067a565b82525050565b5f6107538383610739565b60208301905092915050565b5f602082019050919050565b5f61077582610710565b61077f818561071a565b935061078a8361072a565b805f5b838110156107ba5781516107a18882610748565b97506107ac8361075f565b92505060018101905061078d565b5085935050505092915050565b5f6107d2838361076b565b905092915050565b5f602082019050919050565b5f6107f0826106e7565b6107fa81856106f1565b93508360208202850161080c85610701565b805f5b85811015610847578484038952815161082885826107c7565b9450610833836107da565b925060208a0199505060018101905061080f565b50829750879550505050505092915050565b5f60408201905061086c5f8301856106d8565b818103602083015261087e81846107e6565b9050939250505056fe","linkReferences":{}},"deployedBytecode":{"object":"0x6080604052348015600e575f5ffd5b50600436106026575f3560e01c8063aa4cfccd14602a575b5f5ffd5b60306044565b604051603b919060ca565b60405180910390f35b737ffe42c4a5deea5b0fec41c94c136cf11559722781565b5f73ffffffffffffffffffffffffffffffffffffffff82169050919050565b5f819050919050565b5f60986094609084605c565b607b565b605c565b9050919050565b5f60a7826084565b9050919050565b5f60b682609f565b9050919050565b60c48160ae565b82525050565b5f60208201905060db5f83018460bd565b9291505056fea264697066735822122053c36aa6ba2db49572ebe1dd639e351026820b4d319baaed46c7bb041ef97e3a64736f6c634300081e0033","linkReferences":{}},"methodIdentifiers":{"STATE_VIEW()":"aa4cfccd"},"id":0}